:020000040000FA
:1000000060FDFF1F650100006D0100006F01000031
:1000100000000000000000000000000000000000E0
:10002000000000000000000000000000710100005E
:1000300000000000000000007301000075010000D6
:1000400077010000770100007701000077010000D0
:1000500077010000770100007701000077010000C0
:1000600077010000770100007701000077010000B0
:1000700077010000770100007701000077010000A0
:100080007701000077010000770100007701000090
:100090007701000077010000770100007701000080
:1000A0007701000077010000770100007701000070
:1000B0007701000077010000770100007701000060
:1000C00000F002F800F03EF812A030C808382418FA
:1000D0002D18AC4201D100F035F80FCCA246AB464A
:1000E0000CA730CF2D1B083F3F197C427F1E544484
:1000F0002D090426F441641EAC4201D300F022F81D
:100100000126334200D0FB1A3343984754465D46DC
:10011000DFE700001802000028020000704700001E
:100120000023002400250026103A01D378C1FBD813
:10013000520700D330C100D50B6070471FB51FBDFB
:1001400010B510BD00F02BF81146FFF7F7FF00F0D7
:100150007DF800F043F803B4FFF7F2FF03BC00F0B2
:1001600049F800000748804707480047FEE7FEE7D8
:10017000FEE7FEE7FEE7FEE704480549034A054BB4
:100180007047000005020000C100000060FCFF1F76
:1001900060FDFF1F60FCFF1F70477047704775468A
:1001A00000F024F8AE46050069465346C008C0007A
:1001B000854618B020B5FFF7DFFF60BCB6460026C5
:1001C0000027C0C5C0C5C0C5C0C5C0C5C0C5C0C565
:1001D000C0C5403D490849008D46704710B50446EA
:1001E000C046C0462046FFF7B6FF10BD0048704726
:1001F00000FCFF1F01491820ABBEFEE726000200ED
:10020000704700000E4800210160012000040D4AE3
:1002100010603848C21E06231370821E11700178C8
:100220001F220A4020320270074980220A70C178DA
:10023000C906FCD5C1780907890FFBD17047C046B4
:1002400000810440448004400050064070B52948B5
:10025000A0210170284929480864012082020B6B03
:1002600013430B634B6B13434B6382060B681343BF
:100270000B604102224A1160516022490A78F3233F
:1002800013400B70CA1E10708A1E382313700F2281
:10029000CA710A780C2313430B70002248241AA356
:1002A0000D56002DFCD50C71521C9C5C132AF7D105
:1002B00000230A24194A0D56002DFCD50C715B1C35
:1002C000D45C022BF7D100236E2515A40E56002E08
:1002D000FCD50D715B1CE55C062BF7D100230A24CD
:1002E0000D56002DFCD50C715B1CD45C022BF7D194
:1002F000002070BD0340064004800440000001104F
:1003000004A0044003A0064048656C6C6F20576F42
:10031000726C64647361646173642100280300007B
:100320006E696262612100000A0D00001004000085
:1003300000FCFF1F60010000200100000000000021
:1003400000000000000000000000000000000000AD
:10035000000000000000000000000000000000009D
:10036000000000000000000000000000000000008D
:10037000000000000000000000000000000000007D
:10038000000000000000000000000000000000006D
:10039000000000000000000000000000000000005D
:1003A000000000000000000000000000000000004D
:1003B000000000000000000000000000000000003D
:1003C000000000000000000000000000000000002D
:1003D000000000000000000000000000000000001D
:1003E000000000000000000000000000000000000D
:1003F00000000000000000000000000000000000FD
:10040000FFFFFFFFFFFFFFFFFFFFFFFFFEFFFFFFFD
:040000050000016591
:00000001FF
