:020000040000FA
:10000000A8000020A5010000AD010000AF01000024
:1000100000000000000000000000000000000000E0
:10002000000000000000000000000000B10100001E
:100030000000000000000000B3010000B501000056
:10004000B7010000B7010000B7010000B7010000D0
:10005000B7010000B7010000B7010000B7010000C0
:10006000B7010000B7010000B7010000B7010000B0
:10007000A50C0000B7010000B7010000B7010000A7
:10008000B7010000B7010000B7010000B701000090
:10009000B7010000B7010000B7010000B701000080
:1000A000B7010000B7010000610C0000B7010000BB
:1000B000B7010000B7010000B7010000B701000060
:1000C00000F002F800F05EF812A030C808382418DA
:1000D0002D18AC4201D100F055F80FCCA246AB462A
:1000E0000CA730CF2D1B083F3F197C427F1E544484
:1000F0002D090426F441641EAC4201D300F042F8FD
:100100000126334200D0FB1A3343984754465D46DC
:10011000DFE700001017000030170000103A02D38C
:1001200078C878C1FAD8520701D330C830C101D598
:1001300004680C6070470000704700000023002432
:1001400000250026103A01D378C1FBD8520700D30E
:1001500030C100D50B60704710B5642902D100F0A2
:1001600099F810BD752902D100F094F810BD7829D6
:1001700002D100F0F1F810BD002010BD1FB51FBD69
:1001800010B510BD00F0B6FC1146FFF7F7FF01F007
:100190006FF900F0CEFC03B4FFF7F2FF03BC00F0F0
:1001A000D1FC00000748804707480047FEE7FEE70C
:1001B000FEE7FEE7FEE7FEE704480549034A054B74
:1001C00070470000FD0B0000C1000000A8FCFF1FED
:1001D000A8000020A8FCFF1F0FB41CB5084B06AAFE
:1001E0007B4469460090059800F059FC04460020C5
:1001F000694600F0F4F820461CBC08BC04B018475F
:10020000FB0100000FB41CB50C0007AA009007D03A
:100210004142A14202D30019401E01E00020C04328
:10022000074B7B4469460190069800F038FC00219A
:10023000002C01D0009A11701CBC08BC04B01847F7
:10024000C301000070B5044685690068C10601D588
:10025000302600E02026C00707D070BD6268304617
:10026000A1689047206A401C20626D1EF6D570BDC3
:1002700070B5044685690078C00707D170BD626813
:10028000A16820209047206A401C20626D1EF6D590
:1002900070BD0000F7B5002575291068009914A6F7
:1002A00011D0C046C046002802DA404211A608E03C
:1002B000009909688A0701D50FA602E0490704D50D
:1002C0000EA6012501E0C046C046009F0024243749
:1002D00004E000F0F7FB30313955641C0028F8D1F8
:1002E0002B4632462146009800F07BFBFEBD000005
:1002F000000000002D0000002B0000002000000086
:10030000F8B50F460188090502D5224C7C4402E06D
:10031000204C7C440E3405460021243508E01607A5
:100320001209360FA65D6E541E0732431B09491C85
:1003300016461E43F3D1224604780023240705D530
:10034000702F06D0002901D00223113200F049FBA2
:10035000F8BD01231032F9E770B504460D46214679
:100360001068C046C0460023024629462046FFF7D3
:10037000C7FF70BDD21DD308DB000CCBC0E730B483
:10038000036820241268234303600823C36130BC40
:100390000023B5E7E413000001E004C0091F0429AD
:1003A000FBD28B0701D50280801CC90700D00270E8
:1003B000704700290BD0C30702D00270401C491EB1
:1003C000022904D3830702D50280801C891EE3E73B
:1003D0000022EEE70022DFE77047704770470A68A7
:1003E0001070521C0A6070470CC908399A4202D238
:1003F000531C0B60107070470048704710FCFF1FC3
:10040000FFFFFFFFFFFFFFFFFFFFFFFFFEFFFFFFFD
:10041000F3B50446002081B020622046E168884799
:10042000002872D0252802D06268A168ABE0594F3D
:1004300000267F442046E16888472028054608DBDF
:10044000312D06D2781920380078002801D00643D3
:10045000F0E7B00701D5042086430020E06107469D
:10046000A0612A2D0AD0284601F036F8002827D0AE
:10047000B8000019303D0090856119E00298BA007B
:10048000121902C8916102902046E1688847012F45
:10049000054617D1E06900281FDA202086431CE0BA
:1004A00000980A21806948430099401930388861D2
:1004B0002046E1688847054601F00EF80028EFD194
:1004C000012F0AD02E2D08D12046E1688847054625
:1004D000202006437F1C022FC3DBA069002803DA1B
:1004E0004042A06101200643F00701D0102086435E
:1004F0006C2D0BD0682D09D04C2D3CD06A2D38D0F6
:10050000742D38D07A2D36D016E040E0E1682F46C1
:1005100020468847B842054609D16C2F29D00120D2
:100520008002E168064320468847054604E06C2FB8
:100530001DD0FF2001300643002D28D02846413829
:10054000192803D80120C002064320352046266022
:100550002946029A1646FFF7FFFD002810D0012811
:100560000BD0F61DF008C0000830029055E740207F
:10057000E1E78020D5E70020D3E7361D02964CE75F
:1005800062682846A1689047206A401C44E7206AB8
:10059000FEBD0000E6120000024670B50A43920755
:1005A0002AD11E4DEE0104C808C9541B944334409F
:1005B00017D0D0B2D9B2401A2106014310D190B25F
:1005C00099B2401A210401430AD110021902000A0B
:1005D000090A401A2102014302D1100E190E401AD5
:1005E00070BD9A42DFD010BA19BA884201D90120F1
:1005F00070BD0020C04370BD02780B78401C491CC0
:10060000002A09D09A4207D102780B78401C491C75
:10061000002A01D09A42EFD0D01A70BD0101010129
:10062000002203098B422CD3030A8B4211D30023EF
:100630009C464EE003460B433CD4002243088B42C9
:1006400031D303098B421CD3030A8B4201D3944656
:100650003FE0C3098B4201D3CB01C01A5241830949
:100660008B4201D38B01C01A524143098B4201D303
:100670004B01C01A524103098B4201D30B01C01A2E
:100680005241C3088B4201D3CB00C01A52418308A8
:100690008B4201D38B00C01A524143088B4201D3D5
:1006A0004B00C01A5241411A00D201465241104635
:1006B00070475DE0CA0F00D04942031000D34042AA
:1006C00053409C46002203098B422DD3030A8B42E0
:1006D00012D38901FC2212BA030A8B420CD389017E
:1006E00092118B4208D3890192118B4204D3890164
:1006F0003AD0921100E08909C3098B4201D3CB01A2
:10070000C01A524183098B4201D38B01C01A524156
:1007100043098B4201D34B01C01A524103098B425A
:1007200001D30B01C01A5241C3088B4201D3CB0045
:10073000C01A524183088B4201D38B00C01A524128
:10074000D9D243088B4201D34B00C01A5241411AFF
:1007500000D201465241104663465B1001D340422D
:10076000002B00D54942704763465B1000D34042DE
:1007700001B50549002802DC491C084000E0084694
:10078000C046C04602BD00BFFFFFFF7FF0B5FF259A
:100790002D04C609C209FF2704462E400137CB09A4
:1007A0003E4348402A402B400746002A6BD0002B8E
:1007B00069D0AA4267D0AB4265D0002800DA324641
:1007C0000125ED0529432C4309022002090AD21A0A
:1007D0004B0C7F24E31A434C000A7C44E35C7D24E9
:1007E0002404121914145B00A218884201D3521C6D
:1007F00000E0400049420C465C4324115C43DB01AD
:100800006415E318040A5C43C502200D0C464443FA
:100810006419250A5D432303EC0C0D466543000370
:100820000019EB184C42A34201D35B18401CD405BD
:100830002018002B07D05B00C91804D3401C0029E6
:1008400001D1400840003F2189048A4209D3002A8F
:1008500008DC1106090F04D0032149074018C00F16
:10086000C007F0BD01224100120689187F225206FE
:100870009142F6D205214907C84201D59010F0BD3A
:10088000FF20C005F0BD002F00DA32461648AA420C
:1008900007D2AB4205D21902090E17D0F80FC007D4
:1008A000F0BDFF2563002D06AB42F9D84900A942EF
:1008B000F6D8AB4201D1A942F2D0A94201D1002120
:1008C00001E061004908D0050843F0BD1102090E9E
:1008D000FBD0FF200243D005F0BD0A46014610467A
:1008E00054E700004F0F00000000C07F10B5014624
:1008F0009E240002CA15A307002A02D01843002A2A
:1009000004DBA21A002A0CDDD04010BD1206120E24
:1009100001D140004008A21A03D4D0404042002830
:10092000F3DDFF2248001206904201D9002010BDDD
:10093000C817C043584010BD1F22030C02D10F221C
:1009400000041CD0030E01D10002083A030F01D1AC
:100950000001121F830F01D18000921E002801DBCD
:100960004000521ED205511802125118192290400F
:1009700004D3491C002801D14908490008467047A2
:10098000C10FC90700D04042012292071143D3E7AB
:1009900001218907D0E770B50446051FFFF72CFD3C
:1009A0000068002C1AD0446801E020466468002CDE
:1009B00001D0AC42F9D301680A18AA4204D12A68CE
:1009C00005468918016000E0456028684119A14288
:1009D00005D16168696021684018286070BD6C604D
:1009E00070BDFFB504460D4681B0243000902168EB
:1009F000880604D51022E0699143216000E00120BF
:100A0000A84201DD471B00E000270498A1697A197C
:100A10001018081AA0612078C00602D42046FFF7FB
:100A200011FC002608E003986268A168805D904789
:100A3000206A401C761C206204988642F3DB2078F2
:100A4000C0060AD52046FFF7FDFB06E06268A168F4
:100A500030209047206A401C206238467F1E0028C4
:100A6000F4DC07E000986268A168405D9047206A66
:100A7000401C206228466D1E0028F3DC2046FFF74C
:100A8000F7FB2078000602D5022005B0F0BD01205A
:100A9000FBE7000001694A1C02610878704700B555
:100AA0008FB002910021059105490193794403918A
:100AB000114604906846FFF7ABFC0FB000BD000084
:100AC000E5FFFFFF01468008081A02091018020A14
:100AD0001018020C1018C008820012185200891A4F
:100AE00001E0401C0A390A29FBD2704700487047D0
:100AF00008FCFF1F7546FFF7F9FFAE460500694683
:100B00005346C008C000854618B020B5FFF754FB17
:100B100060BCB64600260027C0C5C0C5C0C5C0C55C
:100B2000C0C5C0C5C0C5C0C5403D490849008D46C7
:100B3000704710B50446C046C0462046FFF72BFB61
:100B400010BD000001491820ABBEFEE726000200E0
:100B50007047000080B540490B780120C0030A7837
:100B60003F2B11D8520703D40A789206520FD04077
:100B7000C97849097944097949008F4403231B1E28
:100B800017262A21052116E0C0231A40402A08D141
:100B90004A78D2071FD0087A0007410F1248C84090
:100BA00019E009781940802915D080BD0521C901B7
:100BB0005C310FE00F21C9010CE00521490209E079
:100BC0000A4907E00521090204E005210902B831BC
:100BD00000E00749484307490968090F491CFFF726
:100BE0001FFD0549086080BD00093D00710B000034
:100BF000950800004480044000FCFF1F13480021BA
:100C0000016001204102B94A13680B4313600004DC
:100C1000D0600F4801680F4A1140016041681140DF
:100C200041600D48042141700C4980220A70022164
:100C30000170C1781F220A40A032C2708179C906B2
:100C4000FCD481790907890FFBD1704700810440EA
:100C50000C900440FFF8FFFE0040064000500640A4
:100C6000B0B5684800214170A3490A6804231343C2
:100C70000B604A6803785C425C410470604C002B56
:100C800000D1641C247824070125AD0564194C604B
:100C9000590040184188511A0A04D2179143C18063
:100CA000B0BDC04680B500F0EBFA80BDF0B5431E84
:100CB00004469C41270201267302002900D01F43ED
:100CC000B402002A00D02743784D6F60002801D17C
:100CD000300200E00020002900D1C018002A00D115
:100CE00000192860F0BDC046F8B546494A78002092
:100CF000002A19D101224A700F89C988642901D8B4
:100D0000652F11D36424204648437D182946FFF7F8
:100D100087FC06467C4320462946FFF781FC801B62
:100D20006430C10F40184010C0B2F8BD1F2101400F
:100D30005248016001680906FCD5006980B270471D
:100D400080B51A20FFF7F2FFFFF722FE074900F0F7
:100D500011FC0749FFF71AFD064900F0C5FB0649DB
:100D6000FFF714FD054900F0BFFB80BD713D3AC09F
:100D700000F07F45C74B373F2E56D43A0000C8419C
:100D8000F8B55D48016804242143016002688021B0
:100D90008A4302600268009203684225AB43036005
:100DA00003680B4303600025154E164B022D11D02E
:100DB000775D3F0701229205BA1842600268520728
:100DC000FCD50268224302606A009A18476857807F
:100DD0006D1CEBE704688C430460046840252543E0
:100DE00005600224009A22400568A543AA18026003
:100DF00002680A4302600021197003494160F8BD8E
:100E00006D17000068FCFF1F0000409010B5012026
:100E1000C106364A53680B435360410213680B43C3
:100E2000136007221102144B1C688C431C60134989
:100E300055238B600423CB604A624A6A80231343A4
:100E40004B624A6A1206FCD44A6A520613D4C86C32
:100E50008A6C10184A6C80180A6C8018CA6B80184B
:100E60008A6B801840080122D203024390B2C86204
:100E70001F200860002010BD3090044000B00340E7
:100E800001208102194A13680B43136000020649CE
:100E90000860486088600720000204490A6902432C
:100EA0000A6108607047C04620A0044044F00F402B
:100EB00080B50E48016820220A43026003214902DE
:100EC00002680A4302600A48002101600948016083
:100ED00009480168094A0A4302600120800608495E
:100EE000086008490860FFF74BFF80BD3880044068
:100EF0003490044030A0044000500440E40B7014CF
:100F000080E200E000E100E0BFF34F8F03480449B6
:100F10000160BFF34F8F00BFFDE7C0460CED00E05E
:100F20000400FA057047014644310A78002AFCD0D3
:100F300000220A70001D7047F0B593B00D460446BC
:100F40006BA12846FFF728FB00283AD06AA1284663
:100F5000FFF722FB002800D1C2E069A12846FFF775
:100F60001BFB002832D069A12846FFF715FB00289B
:100F700037D069A12846FFF70FFB00284FD069A1A1
:100F80002846FFF709FB002858D069A12846FFF73B
:100F900003FB00285AD06AA12846FFF7FDFA002873
:100FA0005DD06CA12846FFF7F7FA002860D06DA14C
:100FB0002846FFF7F1FA002863D0206882686CA108
:100FC00002E0206882688149204634E07C4803685A
:100FD0004068009006AD32217A4A2846FFF712F9A0
:100FE00025E0FFF7ADFE0646FFF780FC0546FFF75C
:100FF000C7FC0146304600F015FB6D4900F0BAFA17
:10100000FFF774FC009006AE0A216AA230462B4618
:10101000FFF7F8F820688268204631460BE0FFF7BA
:1010200063FE024606AD61492846FFF7D5F8206801
:10103000826820462946904713B0F0BD2068826838
:10104000594920469047FFF79BFEF5E70120002114
:101050000A46FFF72BFE206882685249B4E7012157
:1010600000200246FFF722FE206882684C49ABE769
:10107000002001220146FFF719FE206882684749D7
:10108000A2E71D252A21012728463A4600F0AEF99D
:101090000E210022284600F0A9F90622384E2846E3
:1010A0003946334600F03EF933787078B178F278FB
:1010B0003579777900900191029203950497B51DD7
:1010C000242130A22846FFF79DF820688268204638
:1010D0002946904730480028AED000BF401EFAE7AE
:1010E00020688268384920469047FFF70DFFC046C8
:1010F00070696E670000000072657365740000001F
:1011000072656164696E666F0000000072656164FB
:1011100074656D700000000072656164746F7563C2
:1011200068000000736574746F75636800000000E8
:101130007365746C6564636F6C6F727265640000D4
:101140007365746C6564636F6C6F72677265656EEE
:10115000000000007365746C6564636F6C6F72628D
:101160006C75650072656164616363656C000000A5
:10117000556E6B6E6F776E20636F6D6D616E640080
:1011800072FCFF1F2564202564202564202564202F
:101190002564202564000000C0C62D00B2170000A1
:1011A000C3170000A2170000E91700009417000001
:1011B0000000C84225642E25303264430000000040
:1011C0005C80044001180000D5170000FC170000E7
:1011D00010B50A4A13680A2907D1C11800230B71F8
:1011E000442101244454136010BD0D2905D03E2B29
:1011F00003D8C0180171581C106010BDA0FCFF1F5F
:1012000010B50446001D4021FFF7E4F844200021FA
:10121000215410BD80B5084600F015F880BD80B59A
:10122000084600F01BF880BD4421002242540249C8
:10123000083101607047C0467017000080B5482132
:1012400000F012F980BD10B504462078002803D0C4
:1012500000F00EF8641CF8E710BD000080B5FFF741
:10126000F2FF02A0FFF7EFFF80BDC0460A0D0000AD
:101270000A4900228A56002AFBD5C8707047C0462A
:10128000B0B5064C214D2078800606D52868E17857
:101290000028F8D0FFF79CFFF5E7B0BD04A006409A
:1012A00070B50446194802602160FFF753FC012520
:1012B000A80217490A6B02430A634A6B02434A6356
:1012C000A8060A6802430A6068021249086048607A
:1012D000114EF078F3210140F170206801010F48B0
:1012E000FFF79EF9C104C90E317070700F20B07203
:1012F000F07820210143F170F0780C210143F17066
:10130000280307490860204670BDC0469CFCFF1FAB
:101310000480044004A0044000A00640006CDC02ED
:1013200000E100E0FEB5029301920E46404F39788D
:1013300080220A433A70397810220A433A70397889
:1013400020220A433A704400BC703A4DA847BE7050
:10135000A8473878042101433970601CB870A84749
:101360003878EF21014039700198461E0024387802
:10137000E5B2AE420ADDF72108403870B87800F0D7
:101380005BF8B87802994855641CF0E708210843D7
:101390003870B87800F050F83878DF2101403970A3
:1013A000B8780299485538787F210140397000207B
:1013B000FEBDC0460A48016840220A43026001217E
:1013C0008A02436813434360480206490860486044
:1013D000054841787F220A4042700321017070471E
:1013E000348004400CA0044001600640F8B5144667
:1013F0000D460F4E317880220A4332703178102228
:101400000A433270317820220A4332704000B070B3
:10141000084FB847B570B847B470B8473078DF2187
:101420000140317030787F21014031700020F8BDDB
:10143000026006403914000000210748074A03787B
:101440009B0703D44B1C91421946F8D30178022222
:101450000A4302707047C046036006401027000030
:1014600080B5FFF798FA80BD80B5FFF7F9FF80BD22
:1014700094B002AC2046FFF7D7FE4B20C10101A873
:101480002246FFF70DFFFFF795FFFFF7F9FCFFF787
:101490000FFDFFF7BBFC2046FFF7B2FE0120002145
:1014A0000A46FFF703FC06A12046FFF7B8FE02AC90
:1014B0002046FFF738FD01462046FFF73DFDF6E7E1
:1014C00057616974696E6720666F7220636F6D6D16
:1014D000616E64732E2E2E0030380A2801D201204E
:1014E000704700207047000070B50125ED0704002B
:1014F0004C4020D4441A01D2001B0919C60D4B00E0
:10150000F2B2FF2A29D01B0E2CD000020C02284375
:101510002C43D31ADC40051910D2280A02D3401CF0
:101520006D0611D0761EF6058019FF2A00DA70BD0F
:10153000C00DC00570BD694000F07AF80120054378
:10154000C541521C761CE8E764089C40C901614013
:101550008900E7D10124A043E4E71B0E440200D038
:10156000034870BD002AFCD1C00FC00770BD00BF8A
:101570000000C07F70B5420064414B005C41120E18
:1015800039D01B0E38D0FF2A3CD0FF2B3AD0D218CE
:101590007F3A40024902400A490A4518ED01060017
:1015A0004E43000A090A48430104731A4019190CF2
:1015B0004318990F04D05B08012149075B1A521C9C
:1015C000D80904D3401CF50301D19D0607D0FF2A9A
:1015D00008D2D50506D0E4072043401970BD012587
:1015E000A843F4E7002A01DCE00770BD2402FF20D5
:1015F0002043C00570BD1B0EFF2A03D0FF2B01D076
:10160000E00770BDFF2636064500B54206D84D00FE
:10161000B54203D8D218FF2A00D0E7E7004870BDD2
:101620000000C07F70B50125ED0704004C4022D4B6
:10163000441A02D26C40001B0919C60D4B00F2B2CD
:10164000FF2A4BD01B0E50D000020C02A8432C43A3
:10165000D31ADC40051B05D5AD0019D36D08761EE5
:10166000521E37D0F605280A01D2801970BD70418C
:101670006D0603D070BD6940FFF73CFF9C40090236
:101680006140490001D0401E70BD0124A04370BDDF
:101690006D081DD001202B0C01D12D0410302B0E14
:1016A00001D12D0208302B0F01D12D01001DAB0FF0
:1016B00001D1AD00801CEB0F01D16D00401C361A2A
:1016C000121A6D00680AF5054019012A02DB70BD87
:1016D000002070BDC036300AC00770BD1B0E44022A
:1016E00001D1FF2B00D1024870BD002AF0D070BD9F
:1016F0000000C07F3031323334353637383941421B
:101700004344454640305800303132333435363763
:10171000383961626364656640307800040000080F
:101720000000000000000002000100001081828320
:101730008485868788898B8C8D8E8F9192939596E0
:1017400097999A9C9D9FA0A2A3A5A7A8AAACAEB06A
:10175000B2B3B5B7B9BCBEC0C2C5C7C9CCCED1D46F
:10176000D7D9DCDFE2E6E9ECF0F3F7FAFE0908008E
:10177000000000000000000001120000151200002F
:101780001F120000270F0000390F0000250F000076
:101790003D120000536C69646572203D2025750D73
:1017A0000A004C45442073657420746F20524544F0
:1017B00021004C45442073657420746F20424C55C1
:1017C0004521004C45442073657420746F204752B6
:1017D00045454E210053797374656D2072657365BC
:1017E0007474696E672E2E2E005453492063616C09
:1017F0006962726174696F6E2E2E2E00504F4E47D3
:10180000004465766963653A204652444D2D4B4C41
:1018100030355A4A0A5549443A20253038582D2542
:10182000303858004418000000FCFF1F040000007E
:101830001C0100004818000008FCFF1FA004000065
:081840003C0100000000DC0285
:04000005000001A551
:00000001FF
